{
  "contractName": "PrimelyToken",
  "abi": [
    {
      "inputs": [],
      "stateMutability": "nonpayable",
      "type": "constructor"
    },
    {
      "anonymous": false,
      "inputs": [
        {
          "indexed": true,
          "internalType": "address",
          "name": "owner",
          "type": "address"
        },
        {
          "indexed": true,
          "internalType": "address",
          "name": "approved",
          "type": "address"
        },
        {
          "indexed": true,
          "internalType": "uint256",
          "name": "tokenId",
          "type": "uint256"
        }
      ],
      "name": "Approval",
      "type": "event"
    },
    {
      "anonymous": false,
      "inputs": [
        {
          "indexed": true,
          "internalType": "address",
          "name": "owner",
          "type": "address"
        },
        {
          "indexed": true,
          "internalType": "address",
          "name": "operator",
          "type": "address"
        },
        {
          "indexed": false,
          "internalType": "bool",
          "name": "approved",
          "type": "bool"
        }
      ],
      "name": "ApprovalForAll",
      "type": "event"
    },
    {
      "anonymous": false,
      "inputs": [
        {
          "indexed": true,
          "internalType": "address",
          "name": "from",
          "type": "address"
        },
        {
          "indexed": true,
          "internalType": "address",
          "name": "to",
          "type": "address"
        },
        {
          "indexed": true,
          "internalType": "uint256",
          "name": "tokenId",
          "type": "uint256"
        }
      ],
      "name": "Transfer",
      "type": "event"
    },
    {
      "inputs": [
        {
          "internalType": "uint256",
          "name": "",
          "type": "uint256"
        }
      ],
      "name": "Items",
      "outputs": [
        {
          "internalType": "uint256",
          "name": "id",
          "type": "uint256"
        },
        {
          "internalType": "address",
          "name": "creator",
          "type": "address"
        },
        {
          "internalType": "string",
          "name": "uri",
          "type": "string"
        }
      ],
      "stateMutability": "view",
      "type": "function",
      "constant": true
    },
    {
      "inputs": [
        {
          "internalType": "address",
          "name": "to",
          "type": "address"
        },
        {
          "internalType": "uint256",
          "name": "tokenId",
          "type": "uint256"
        }
      ],
      "name": "approve",
      "outputs": [],
      "stateMutability": "nonpayable",
      "type": "function"
    },
    {
      "inputs": [
        {
          "internalType": "address",
          "name": "owner",
          "type": "address"
        }
      ],
      "name": "balanceOf",
      "outputs": [
        {
          "internalType": "uint256",
          "name": "",
          "type": "uint256"
        }
      ],
      "stateMutability": "view",
      "type": "function",
      "constant": true
    },
    {
      "inputs": [
        {
          "internalType": "uint256",
          "name": "tokenId",
          "type": "uint256"
        }
      ],
      "name": "getApproved",
      "outputs": [
        {
          "internalType": "address",
          "name": "",
          "type": "address"
        }
      ],
      "stateMutability": "view",
      "type": "function",
      "constant": true
    },
    {
      "inputs": [
        {
          "internalType": "address",
          "name": "owner",
          "type": "address"
        },
        {
          "internalType": "address",
          "name": "operator",
          "type": "address"
        }
      ],
      "name": "isApprovedForAll",
      "outputs": [
        {
          "internalType": "bool",
          "name": "",
          "type": "bool"
        }
      ],
      "stateMutability": "view",
      "type": "function",
      "constant": true
    },
    {
      "inputs": [],
      "name": "name",
      "outputs": [
        {
          "internalType": "string",
          "name": "",
          "type": "string"
        }
      ],
      "stateMutability": "view",
      "type": "function",
      "constant": true
    },
    {
      "inputs": [
        {
          "internalType": "uint256",
          "name": "tokenId",
          "type": "uint256"
        }
      ],
      "name": "ownerOf",
      "outputs": [
        {
          "internalType": "address",
          "name": "",
          "type": "address"
        }
      ],
      "stateMutability": "view",
      "type": "function",
      "constant": true
    },
    {
      "inputs": [
        {
          "internalType": "address",
          "name": "from",
          "type": "address"
        },
        {
          "internalType": "address",
          "name": "to",
          "type": "address"
        },
        {
          "internalType": "uint256",
          "name": "tokenId",
          "type": "uint256"
        }
      ],
      "name": "safeTransferFrom",
      "outputs": [],
      "stateMutability": "nonpayable",
      "type": "function"
    },
    {
      "inputs": [
        {
          "internalType": "address",
          "name": "from",
          "type": "address"
        },
        {
          "internalType": "address",
          "name": "to",
          "type": "address"
        },
        {
          "internalType": "uint256",
          "name": "tokenId",
          "type": "uint256"
        },
        {
          "internalType": "bytes",
          "name": "_data",
          "type": "bytes"
        }
      ],
      "name": "safeTransferFrom",
      "outputs": [],
      "stateMutability": "nonpayable",
      "type": "function"
    },
    {
      "inputs": [
        {
          "internalType": "address",
          "name": "operator",
          "type": "address"
        },
        {
          "internalType": "bool",
          "name": "approved",
          "type": "bool"
        }
      ],
      "name": "setApprovalForAll",
      "outputs": [],
      "stateMutability": "nonpayable",
      "type": "function"
    },
    {
      "inputs": [
        {
          "internalType": "bytes4",
          "name": "interfaceId",
          "type": "bytes4"
        }
      ],
      "name": "supportsInterface",
      "outputs": [
        {
          "internalType": "bool",
          "name": "",
          "type": "bool"
        }
      ],
      "stateMutability": "view",
      "type": "function",
      "constant": true
    },
    {
      "inputs": [],
      "name": "symbol",
      "outputs": [
        {
          "internalType": "string",
          "name": "",
          "type": "string"
        }
      ],
      "stateMutability": "view",
      "type": "function",
      "constant": true
    },
    {
      "inputs": [
        {
          "internalType": "address",
          "name": "from",
          "type": "address"
        },
        {
          "internalType": "address",
          "name": "to",
          "type": "address"
        },
        {
          "internalType": "uint256",
          "name": "tokenId",
          "type": "uint256"
        }
      ],
      "name": "transferFrom",
      "outputs": [],
      "stateMutability": "nonpayable",
      "type": "function"
    },
    {
      "inputs": [
        {
          "internalType": "string",
          "name": "uri",
          "type": "string"
        }
      ],
      "name": "createItem",
      "outputs": [
        {
          "internalType": "uint256",
          "name": "",
          "type": "uint256"
        }
      ],
      "stateMutability": "nonpayable",
      "type": "function"
    },
    {
      "inputs": [
        {
          "internalType": "uint256",
          "name": "tokenId",
          "type": "uint256"
        }
      ],
      "name": "tokenURI",
      "outputs": [
        {
          "internalType": "string",
          "name": "",
          "type": "string"
        }
      ],
      "stateMutability": "view",
      "type": "function",
      "constant": true
    }
  ],
  "bytecode": "0x60806040523480156200001157600080fd5b50604080518082018252600c81526b283934b6b2b63caa37b5b2b760a11b60208083019182528351808501909452600584526450524d4c5960d81b908401528151919291620000639160009162000082565b5080516200007990600190602084019062000082565b50505062000165565b828054620000909062000128565b90600052602060002090601f016020900481019282620000b45760008555620000ff565b82601f10620000cf57805160ff1916838001178555620000ff565b82800160010185558215620000ff579182015b82811115620000ff578251825591602001919060010190620000e2565b506200010d92915062000111565b5090565b5b808211156200010d576000815560010162000112565b600181811c908216806200013d57607f821691505b602082108114156200015f57634e487b7160e01b600052602260045260246000fd5b50919050565b6114d380620001756000396000f3fe608060405234801561001057600080fd5b50600436106100c55760003560e01c806301ffc9a7146100ca57806306fdde03146100f2578063081812fc14610107578063095ea7b31461013257806317b47cc41461014757806323b872dd146101695780633d54eebb1461017c57806342842e0e1461019d5780636352211e146101b057806370a08231146101c357806395d89b41146101d6578063a22cb465146101de578063b88d4fde146101f1578063c87b56dd14610204578063e985e9c514610217575b600080fd5b6100dd6100d8366004610fd6565b61022a565b60405190151581526020015b60405180910390f35b6100fa61027c565b6040516100e99190611047565b61011a61011536600461105a565b61030e565b6040516001600160a01b0390911681526020016100e9565b61014561014036600461108f565b61039b565b005b61015a61015536600461105a565b6104ac565b6040516100e9939291906110b9565b6101456101773660046110ec565b610561565b61018f61018a3660046111b3565b610592565b6040519081526020016100e9565b6101456101ab3660046110ec565b61062b565b61011a6101be36600461105a565b610646565b61018f6101d13660046111fb565b6106bd565b6100fa610744565b6101456101ec366004611216565b610753565b6101456101ff366004611252565b610762565b6100fa61021236600461105a565b61079a565b6100dd6102253660046112cd565b6108aa565b60006001600160e01b031982166380ac58cd60e01b148061025b57506001600160e01b03198216635b5e139f60e01b145b8061027657506301ffc9a760e01b6001600160e01b03198316145b92915050565b60606000805461028b90611300565b80601f01602080910402602001604051908101604052809291908181526020018280546102b790611300565b80156103045780601f106102d957610100808354040283529160200191610304565b820191906000526020600020905b8154815290600101906020018083116102e757829003601f168201915b5050505050905090565b6000610319826108d8565b61037f5760405162461bcd60e51b815260206004820152602c60248201527f4552433732313a20617070726f76656420717565727920666f72206e6f6e657860448201526b34b9ba32b73a103a37b5b2b760a11b60648201526084015b60405180910390fd5b506000908152600460205260409020546001600160a01b031690565b60006103a682610646565b9050806001600160a01b0316836001600160a01b031614156104145760405162461bcd60e51b815260206004820152602160248201527f4552433732313a20617070726f76616c20746f2063757272656e74206f776e656044820152603960f91b6064820152608401610376565b336001600160a01b0382161480610430575061043081336108aa565b61049d5760405162461bcd60e51b815260206004820152603860248201527f4552433732313a20617070726f76652063616c6c6572206973206e6f74206f776044820152771b995c881b9bdc88185c1c1c9bdd995908199bdc88185b1b60421b6064820152608401610376565b6104a783836108f5565b505050565b60076020526000908152604090208054600182015460028301805492936001600160a01b03909216926104de90611300565b80601f016020809104026020016040519081016040528092919081815260200182805461050a90611300565b80156105575780601f1061052c57610100808354040283529160200191610557565b820191906000526020600020905b81548152906001019060200180831161053a57829003601f168201915b5050505050905083565b61056b3382610963565b6105875760405162461bcd60e51b81526004016103769061133b565b6104a7838383610a2d565b60006105a2600680546001019055565b60006105ad60065490565b90506105b93382610bbb565b60408051606081018252828152336020808301918252828401878152600086815260078352949094208351815591516001830180546001600160a01b0319166001600160a01b0390921691909117905592518051929391926106219260028501920190610f24565b5091949350505050565b6104a783838360405180602001604052806000815250610762565b6000818152600260205260408120546001600160a01b0316806102765760405162461bcd60e51b815260206004820152602960248201527f4552433732313a206f776e657220717565727920666f72206e6f6e657869737460448201526832b73a103a37b5b2b760b91b6064820152608401610376565b60006001600160a01b0382166107285760405162461bcd60e51b815260206004820152602a60248201527f4552433732313a2062616c616e636520717565727920666f7220746865207a65604482015269726f206164647265737360b01b6064820152608401610376565b506001600160a01b031660009081526003602052604090205490565b60606001805461028b90611300565b61075e338383610bd5565b5050565b61076c3383610963565b6107885760405162461bcd60e51b81526004016103769061133b565b61079484848484610ca0565b50505050565b60606107a5826108d8565b6108095760405162461bcd60e51b815260206004820152602f60248201527f4552433732314d657461646174613a2055524920717565727920666f72206e6f60448201526e3732bc34b9ba32b73a103a37b5b2b760891b6064820152608401610376565b6000828152600760205260409020600201805461082590611300565b80601f016020809104026020016040519081016040528092919081815260200182805461085190611300565b801561089e5780601f106108735761010080835404028352916020019161089e565b820191906000526020600020905b81548152906001019060200180831161088157829003601f168201915b50505050509050919050565b6001600160a01b03918216600090815260056020908152604080832093909416825291909152205460ff1690565b6000908152600260205260409020546001600160a01b0316151590565b600081815260046020526040902080546001600160a01b0319166001600160a01b038416908117909155819061092a82610646565b6001600160a01b03167f8c5be1e5ebec7d5bd14f71427d1e84f3dd0314c0f7b2291e5b200ac8c7c3b92560405160405180910390a45050565b600061096e826108d8565b6109cf5760405162461bcd60e51b815260206004820152602c60248201527f4552433732313a206f70657261746f7220717565727920666f72206e6f6e657860448201526b34b9ba32b73a103a37b5b2b760a11b6064820152608401610376565b60006109da83610646565b9050806001600160a01b0316846001600160a01b03161480610a155750836001600160a01b0316610a0a8461030e565b6001600160a01b0316145b80610a255750610a2581856108aa565b949350505050565b826001600160a01b0316610a4082610646565b6001600160a01b031614610aa85760405162461bcd60e51b815260206004820152602960248201527f4552433732313a207472616e73666572206f6620746f6b656e2074686174206960448201526839903737ba1037bbb760b91b6064820152608401610376565b6001600160a01b038216610b0a5760405162461bcd60e51b8152602060048201526024808201527f4552433732313a207472616e7366657220746f20746865207a65726f206164646044820152637265737360e01b6064820152608401610376565b610b156000826108f5565b6001600160a01b0383166000908152600360205260408120805460019290610b3e9084906113a2565b90915550506001600160a01b0382166000908152600360205260408120805460019290610b6c9084906113b9565b909155505060008181526002602052604080822080546001600160a01b0319166001600160a01b03868116918217909255915184939187169160008051602061147e83398151915291a4505050565b61075e828260405180602001604052806000815250610cd3565b816001600160a01b0316836001600160a01b03161415610c335760405162461bcd60e51b815260206004820152601960248201527822a9219b99189d1030b8383937bb32903a379031b0b63632b960391b6044820152606401610376565b6001600160a01b03838116600081815260056020908152604080832094871680845294825291829020805460ff191686151590811790915591519182527f17307eab39ab6107e8899845ad3d59bd9653f200f220920489ca2b5937696c31910160405180910390a3505050565b610cab848484610a2d565b610cb784848484610d06565b6107945760405162461bcd60e51b8152600401610376906113d1565b610cdd8383610e04565b610cea6000848484610d06565b6104a75760405162461bcd60e51b8152600401610376906113d1565b60006001600160a01b0384163b15610df957604051630a85bd0160e11b81526001600160a01b0385169063150b7a0290610d4a903390899088908890600401611423565b6020604051808303816000875af1925050508015610d85575060408051601f3d908101601f19168201909252610d8291810190611460565b60015b610ddf573d808015610db3576040519150601f19603f3d011682016040523d82523d6000602084013e610db8565b606091505b508051610dd75760405162461bcd60e51b8152600401610376906113d1565b805181602001fd5b6001600160e01b031916630a85bd0160e11b149050610a25565b506001949350505050565b6001600160a01b038216610e5a5760405162461bcd60e51b815260206004820181905260248201527f4552433732313a206d696e7420746f20746865207a65726f20616464726573736044820152606401610376565b610e63816108d8565b15610eaf5760405162461bcd60e51b815260206004820152601c60248201527b115490cdcc8c4e881d1bdad95b88185b1c9958591e481b5a5b9d195960221b6044820152606401610376565b6001600160a01b0382166000908152600360205260408120805460019290610ed89084906113b9565b909155505060008181526002602052604080822080546001600160a01b0319166001600160a01b038616908117909155905183929060008051602061147e833981519152908290a45050565b828054610f3090611300565b90600052602060002090601f016020900481019282610f525760008555610f98565b82601f10610f6b57805160ff1916838001178555610f98565b82800160010185558215610f98579182015b82811115610f98578251825591602001919060010190610f7d565b50610fa4929150610fa8565b5090565b5b80821115610fa45760008155600101610fa9565b6001600160e01b031981168114610fd357600080fd5b50565b600060208284031215610fe857600080fd5b8135610ff381610fbd565b9392505050565b6000815180845260005b8181101561102057602081850181015186830182015201611004565b81811115611032576000602083870101525b50601f01601f19169290920160200192915050565b602081526000610ff36020830184610ffa565b60006020828403121561106c57600080fd5b5035919050565b80356001600160a01b038116811461108a57600080fd5b919050565b600080604083850312156110a257600080fd5b6110ab83611073565b946020939093013593505050565b8381526001600160a01b03831660208201526060604082018190526000906110e390830184610ffa565b95945050505050565b60008060006060848603121561110157600080fd5b61110a84611073565b925061111860208501611073565b9150604084013590509250925092565b634e487b7160e01b600052604160045260246000fd5b60006001600160401b038084111561115857611158611128565b604051601f8501601f19908116603f0116810190828211818310171561118057611180611128565b8160405280935085815286868601111561119957600080fd5b858560208301376000602087830101525050509392505050565b6000602082840312156111c557600080fd5b81356001600160401b038111156111db57600080fd5b8201601f810184136111ec57600080fd5b610a258482356020840161113e565b60006020828403121561120d57600080fd5b610ff382611073565b6000806040838503121561122957600080fd5b61123283611073565b91506020830135801515811461124757600080fd5b809150509250929050565b6000806000806080858703121561126857600080fd5b61127185611073565b935061127f60208601611073565b92506040850135915060608501356001600160401b038111156112a157600080fd5b8501601f810187136112b257600080fd5b6112c18782356020840161113e565b91505092959194509250565b600080604083850312156112e057600080fd5b6112e983611073565b91506112f760208401611073565b90509250929050565b600181811c9082168061131457607f821691505b6020821081141561133557634e487b7160e01b600052602260045260246000fd5b50919050565b60208082526031908201527f4552433732313a207472616e736665722063616c6c6572206973206e6f74206f6040820152701ddb995c881b9bdc88185c1c1c9bdd9959607a1b606082015260800190565b634e487b7160e01b600052601160045260246000fd5b6000828210156113b4576113b461138c565b500390565b600082198211156113cc576113cc61138c565b500190565b60208082526032908201527f4552433732313a207472616e7366657220746f206e6f6e20455243373231526560408201527131b2b4bb32b91034b6b83632b6b2b73a32b960711b606082015260800190565b6001600160a01b038581168252841660208201526040810183905260806060820181905260009061145690830184610ffa565b9695505050505050565b60006020828403121561147257600080fd5b8151610ff381610fbd56feddf252ad1be2c89b69c2b068fc378daa952ba7f163c4a11628f55a4df523b3efa26469706673582212203e609fc5ab16e54262fbe54dfad856f8e180be7e4d285cac4142eb61b6a1b22064736f6c634300080a0033",
  "immutableReferences": {},
  "source": "// SPDX-License-Identifier: MIT\npragma solidity ^0.8.0;\n\nimport \"../node_modules/@openzeppelin/contracts/token/ERC721/ERC721.sol\";\nimport \"../node_modules/@openzeppelin/contracts/utils/Counters.sol\";\n\ncontract PrimelyToken is ERC721 {\n    using Counters for Counters.Counter;\n    Counters.Counter private _tokenIds;\n\n    constructor() ERC721(\"PrimelyToken\", \"PRMLY\") {}\n\n    struct Item {\n        uint256 id;\n        address creator;\n        string uri;\n    }\n\n    mapping(uint256 => Item) public Items;\n\n    function createItem(string memory uri) public returns (uint256) {\n        _tokenIds.increment();\n        uint256 newItemId = _tokenIds.current();\n        _safeMint(msg.sender, newItemId);\n\n        Items[newItemId] = Item(newItemId, msg.sender, uri);\n        return newItemId;\n    }\n\n    function tokenURI(uint256 tokenId)\n        public\n        view\n        override\n        returns (string memory)\n    {\n        require(\n            _exists(tokenId),\n            \"ERC721Metadata: URI query for nonexistent token\"\n        );\n\n        return Items[tokenId].uri;\n    }\n}\n",
  "sourcePath": "/Users/pushpitbhardwaj/Desktop/h4CK3R/blockchain/primely/contracts/contracts/PrimelyToken.sol",
  "compiler": {
    "name": "solc",
    "version": "0.8.10+commit.fc410830.Emscripten.clang"
  },
  "schemaVersion": "3.4.3",
  "updatedAt": "2021-12-10T12:35:12.997Z",
  "networkType": "ethereum",
  "devdoc": {
    "kind": "dev",
    "methods": {
      "approve(address,uint256)": {
        "details": "See {IERC721-approve}."
      },
      "balanceOf(address)": {
        "details": "See {IERC721-balanceOf}."
      },
      "getApproved(uint256)": {
        "details": "See {IERC721-getApproved}."
      },
      "isApprovedForAll(address,address)": {
        "details": "See {IERC721-isApprovedForAll}."
      },
      "name()": {
        "details": "See {IERC721Metadata-name}."
      },
      "ownerOf(uint256)": {
        "details": "See {IERC721-ownerOf}."
      },
      "safeTransferFrom(address,address,uint256)": {
        "details": "See {IERC721-safeTransferFrom}."
      },
      "safeTransferFrom(address,address,uint256,bytes)": {
        "details": "See {IERC721-safeTransferFrom}."
      },
      "setApprovalForAll(address,bool)": {
        "details": "See {IERC721-setApprovalForAll}."
      },
      "supportsInterface(bytes4)": {
        "details": "See {IERC165-supportsInterface}."
      },
      "symbol()": {
        "details": "See {IERC721Metadata-symbol}."
      },
      "tokenURI(uint256)": {
        "details": "See {IERC721Metadata-tokenURI}."
      },
      "transferFrom(address,address,uint256)": {
        "details": "See {IERC721-transferFrom}."
      }
    },
    "version": 1
  },
  "userdoc": {
    "kind": "user",
    "methods": {},
    "version": 1
  }
}