{
  "contractName": "PrimelyMarketContract",
  "abi": [
    {
      "anonymous": false,
      "inputs": [
        {
          "indexed": false,
          "internalType": "uint256",
          "name": "id",
          "type": "uint256"
        },
        {
          "indexed": false,
          "internalType": "uint256",
          "name": "tokenId",
          "type": "uint256"
        },
        {
          "indexed": false,
          "internalType": "address",
          "name": "tokenAddress",
          "type": "address"
        },
        {
          "indexed": false,
          "internalType": "uint256",
          "name": "askingPrice",
          "type": "uint256"
        }
      ],
      "name": "itemAdded",
      "type": "event"
    },
    {
      "anonymous": false,
      "inputs": [
        {
          "indexed": false,
          "internalType": "uint256",
          "name": "id",
          "type": "uint256"
        },
        {
          "indexed": false,
          "internalType": "address",
          "name": "buyer",
          "type": "address"
        },
        {
          "indexed": false,
          "internalType": "uint256",
          "name": "askingPrice",
          "type": "uint256"
        }
      ],
      "name": "itemSold",
      "type": "event"
    },
    {
      "inputs": [
        {
          "internalType": "address",
          "name": "",
          "type": "address"
        },
        {
          "internalType": "uint256",
          "name": "",
          "type": "uint256"
        }
      ],
      "name": "activeItems",
      "outputs": [
        {
          "internalType": "bool",
          "name": "",
          "type": "bool"
        }
      ],
      "stateMutability": "view",
      "type": "function",
      "constant": true
    },
    {
      "inputs": [
        {
          "internalType": "uint256",
          "name": "",
          "type": "uint256"
        }
      ],
      "name": "itemsForSale",
      "outputs": [
        {
          "internalType": "uint256",
          "name": "id",
          "type": "uint256"
        },
        {
          "internalType": "address",
          "name": "tokenAddress",
          "type": "address"
        },
        {
          "internalType": "uint256",
          "name": "tokenId",
          "type": "uint256"
        },
        {
          "internalType": "address payable",
          "name": "seller",
          "type": "address"
        },
        {
          "internalType": "uint256",
          "name": "askingPrice",
          "type": "uint256"
        },
        {
          "internalType": "bool",
          "name": "isSold",
          "type": "bool"
        }
      ],
      "stateMutability": "view",
      "type": "function",
      "constant": true
    },
    {
      "inputs": [
        {
          "internalType": "uint256",
          "name": "tokenId",
          "type": "uint256"
        },
        {
          "internalType": "address",
          "name": "tokenAddress",
          "type": "address"
        },
        {
          "internalType": "uint256",
          "name": "askingPrice",
          "type": "uint256"
        }
      ],
      "name": "addItemToMarket",
      "outputs": [
        {
          "internalType": "uint256",
          "name": "",
          "type": "uint256"
        }
      ],
      "stateMutability": "nonpayable",
      "type": "function"
    },
    {
      "inputs": [
        {
          "internalType": "uint256",
          "name": "id",
          "type": "uint256"
        }
      ],
      "name": "buyItem",
      "outputs": [],
      "stateMutability": "payable",
      "type": "function",
      "payable": true
    }
  ],
  "bytecode": "0x608060405234801561001057600080fd5b50610b73806100206000396000f3fe60806040526004361061003f5760003560e01c8063092d0afc146100445780634abc2202146100a4578063e7fb74c7146100d2578063eca4f6a3146100e7575b600080fd5b34801561005057600080fd5b5061006461005f366004610a58565b610132565b604080519687526001600160a01b039586166020880152860193909352921660608401526080830191909152151560a082015260c0015b60405180910390f35b3480156100b057600080fd5b506100c46100bf366004610a89565b610188565b60405190815260200161009b565b6100e56100e0366004610a58565b6104f4565b005b3480156100f357600080fd5b50610122610102366004610ac1565b600160209081526000928352604080842090915290825290205460ff1681565b604051901515815260200161009b565b6000818154811061014257600080fd5b60009182526020909120600690910201805460018201546002830154600384015460048501546005909501549395506001600160a01b0392831694919392169160ff1686565b6040516331a9108f60e11b81526004810184905260009083908590829033906001600160a01b03831690636352211e90602401602060405180830381865afa1580156101d8573d6000803e3d6000fd5b505050506040513d601f19601f820116820180604052508101906101fc9190610aed565b6001600160a01b03161461020f57600080fd5b60405163020604bf60e21b81526004810188905286908890829030906001600160a01b0383169063081812fc90602401602060405180830381865afa15801561025c573d6000803e3d6000fd5b505050506040513d601f19601f820116820180604052508101906102809190610aed565b6001600160a01b03161461029357600080fd5b6001600160a01b03891660009081526001602090815260408083208d845290915290205460ff16156103065760405162461bcd60e51b81526020600482015260176024820152764974656d20697320616c7265616479206f6e2073616c6560481b60448201526064015b60405180910390fd5b60008080549050905060006040518060c001604052808381526020018c6001600160a01b031681526020018d8152602001336001600160a01b031681526020018b81526020016000151581525090806001815401808255809150506001900390600052602060002090600602016000909190919091506000820151816000015560208201518160010160006101000a8154816001600160a01b0302191690836001600160a01b031602179055506040820151816002015560608201518160030160006101000a8154816001600160a01b0302191690836001600160a01b031602179055506080820151816004015560a08201518160050160006101000a81548160ff021916908315150217905550505060018060008c6001600160a01b03166001600160a01b0316815260200190815260200160002060008d815260200190815260200160002060006101000a81548160ff021916908315150217905550806000828154811061047857610478610b11565b9060005260206000209060060201600001541461049757610497610b27565b60408051828152602081018d90526001600160a01b038c1681830152606081018b905290517fd3742413e0092c98517699ed9f8567218c740a5a265a7a986d9430d5979375229181900360800190a19a9950505050505050505050565b60005481908110801561052a5750806000828154811061051657610516610b11565b906000526020600020906006020160000154145b61056c5760405162461bcd60e51b8152602060048201526013602482015272436f756c64206e6f742066696e64206974656d60681b60448201526064016102fd565b816000818154811061058057610580610b11565b600091825260209091206005600690920201015460ff16156105db5760405162461bcd60e51b8152602060048201526014602482015273125d195b481a5cc8185b1c9958591e481cdbdb1960621b60448201526064016102fd565b600083815481106105ee576105ee610b11565b6000918252602082206001600690920201015481546001600160a01b0390911691908590811061062057610620610b11565b600091825260209091206006909102016002015460405163020604bf60e21b815260048101829052829030906001600160a01b0383169063081812fc90602401602060405180830381865afa15801561067d573d6000803e3d6000fd5b505050506040513d601f19601f820116820180604052508101906106a19190610aed565b6001600160a01b0316146106b457600080fd5b600086815481106106c7576106c7610b11565b9060005260206000209060060201600401543410156107205760405162461bcd60e51b8152602060048201526015602482015274139bdd08195b9bdd59da08199d5b991cc81cd95b9d605a1b60448201526064016102fd565b6000868154811061073357610733610b11565b60009182526020909120600690910201600301546001600160a01b031633141561079d5760405162461bcd60e51b815260206004820152601b60248201527a596f752063616e27742062757920796f7572206f776e206974656d60281b60448201526064016102fd565b6001600087815481106107b2576107b2610b11565b906000526020600020906006020160050160006101000a81548160ff0219169083151502179055506000600160008089815481106107f2576107f2610b11565b906000526020600020906006020160010160009054906101000a90046001600160a01b03166001600160a01b03166001600160a01b03168152602001908152602001600020600080898154811061084b5761084b610b11565b906000526020600020906006020160020154815260200190815260200160002060006101000a81548160ff0219169083151502179055506000868154811061089557610895610b11565b6000918252602082206001600690920201015481546001600160a01b03909116916342842e0e91899081106108cc576108cc610b11565b6000918252602082206003600690920201015481546001600160a01b039091169133918b9081106108ff576108ff610b11565b60009182526020909120600260069092020101546040516001600160e01b031960e086901b1681526001600160a01b0393841660048201529290911660248301526044820152606401600060405180830381600087803b15801561096257600080fd5b505af1158015610976573d6000803e3d6000fd5b505050506000868154811061098d5761098d610b11565b600091825260208220600360069092020101546040516001600160a01b03909116913480156108fc02929091818181858888f193505050501580156109d6573d6000803e3d6000fd5b507f8164c6f8917e418c49813e4586897c7067de5a886aa1bea980cd11fa57d48264863360008981548110610a0d57610a0d610b11565b906000526020600020906006020160040154604051610a48939291909283526001600160a01b03919091166020830152604082015260600190565b60405180910390a1505050505050565b600060208284031215610a6a57600080fd5b5035919050565b6001600160a01b0381168114610a8657600080fd5b50565b600080600060608486031215610a9e57600080fd5b833592506020840135610ab081610a71565b929592945050506040919091013590565b60008060408385031215610ad457600080fd5b8235610adf81610a71565b946020939093013593505050565b600060208284031215610aff57600080fd5b8151610b0a81610a71565b9392505050565b634e487b7160e01b600052603260045260246000fd5b634e487b7160e01b600052600160045260246000fdfea2646970667358221220524832224c99649208fc52dfbcb970739397b948c3d98d21264445a15cef6d9664736f6c634300080a0033",
  "immutableReferences": {},
  "source": "// SPDX-License-Identifier: MIT\npragma solidity ^0.8.0;\n\nimport \"../node_modules/@openzeppelin/contracts/token/ERC721/IERC721.sol\";\n\ncontract PrimelyMarketContract {\n    struct AuctionItem {\n        uint256 id;\n        address tokenAddress;\n        uint256 tokenId;\n        address payable seller;\n        uint256 askingPrice;\n        bool isSold;\n    }\n\n    AuctionItem[] public itemsForSale;\n    mapping(address => mapping(uint256 => bool)) public activeItems;\n\n    event itemAdded(\n        uint256 id,\n        uint256 tokenId,\n        address tokenAddress,\n        uint256 askingPrice\n    );\n\n    event itemSold(uint256 id, address buyer, uint256 askingPrice);\n\n    modifier OnlyItemOwner(address tokenAddress, uint256 tokenId) {\n        IERC721 tokenContract = IERC721(tokenAddress);\n        require(tokenContract.ownerOf(tokenId) == msg.sender);\n        _;\n    }\n\n    modifier HasTransferApproval(address tokenAddress, uint256 tokenId) {\n        IERC721 tokenContract = IERC721(tokenAddress);\n        require(tokenContract.getApproved(tokenId) == address(this));\n        _;\n    }\n\n    modifier ItemExists(uint256 id) {\n        require(\n            id < itemsForSale.length && itemsForSale[id].id == id,\n            \"Could not find item\"\n        );\n        _;\n    }\n\n    modifier IsForSale(uint256 id) {\n        require(itemsForSale[id].isSold == false, \"Item is already sold\");\n        _;\n    }\n\n    function addItemToMarket(\n        uint256 tokenId,\n        address tokenAddress,\n        uint256 askingPrice\n    )\n        external\n        OnlyItemOwner(tokenAddress, tokenId)\n        HasTransferApproval(tokenAddress, tokenId)\n        returns (uint256)\n    {\n        require(\n            activeItems[tokenAddress][tokenId] == false,\n            \"Item is already on sale\"\n        );\n        uint256 newItemId = itemsForSale.length;\n        itemsForSale.push(\n            AuctionItem(\n                newItemId,\n                tokenAddress,\n                tokenId,\n                payable(msg.sender),\n                askingPrice,\n                false\n            )\n        );\n        activeItems[tokenAddress][tokenId] = true;\n\n        assert(itemsForSale[newItemId].id == newItemId);\n        emit itemAdded(newItemId, tokenId, tokenAddress, askingPrice);\n        return newItemId;\n    }\n\n    function buyItem(uint256 id)\n        external\n        payable\n        ItemExists(id)\n        IsForSale(id)\n        HasTransferApproval(\n            itemsForSale[id].tokenAddress,\n            itemsForSale[id].tokenId\n        )\n    {\n        require(\n            msg.value >= itemsForSale[id].askingPrice,\n            \"Not enough funds sent\"\n        );\n        require(\n            msg.sender != itemsForSale[id].seller,\n            \"You can't buy your own item\"\n        );\n        itemsForSale[id].isSold = true;\n        activeItems[itemsForSale[id].tokenAddress][\n            itemsForSale[id].tokenId\n        ] = false;\n        IERC721(itemsForSale[id].tokenAddress).safeTransferFrom(\n            itemsForSale[id].seller,\n            msg.sender,\n            itemsForSale[id].tokenId\n        );\n        itemsForSale[id].seller.transfer(msg.value);\n\n        emit itemSold(id, msg.sender, itemsForSale[id].askingPrice);\n    }\n}\n",
  "sourcePath": "/Users/pushpitbhardwaj/Desktop/h4CK3R/blockchain/primely/contracts/contracts/Marketplace.sol",
  "compiler": {
    "name": "solc",
    "version": "0.8.10+commit.fc410830.Emscripten.clang"
  },
  "schemaVersion": "3.4.3",
  "updatedAt": "2021-12-10T12:35:54.998Z",
  "networkType": "ethereum",
  "devdoc": {
    "kind": "dev",
    "methods": {},
    "version": 1
  },
  "userdoc": {
    "kind": "user",
    "methods": {},
    "version": 1
  }
}